{
  "contractName": "CreditLimit",
  "abi": [
    {
      "inputs": [],
      "stateMutability": "nonpayable",
      "type": "constructor"
    },
    {
      "inputs": [],
      "name": "getCreditLimit",
      "outputs": [
        {
          "internalType": "uint256",
          "name": "",
          "type": "uint256"
        }
      ],
      "stateMutability": "view",
      "type": "function"
    },
    {
      "inputs": [
        {
          "internalType": "uint256",
          "name": "travel",
          "type": "uint256"
        },
        {
          "internalType": "uint256",
          "name": "food",
          "type": "uint256"
        },
        {
          "internalType": "uint256",
          "name": "stay",
          "type": "uint256"
        }
      ],
      "name": "expenses",
      "outputs": [],
      "stateMutability": "nonpayable",
      "type": "function"
    },
    {
      "inputs": [],
      "name": "resetCreditLimit",
      "outputs": [],
      "stateMutability": "nonpayable",
      "type": "function"
    }
  ],
  "bytecode": "0x608060405234801561001057600080fd5b50612710600081905550610302806100296000396000f3fe608060405234801561001057600080fd5b50600436106100415760003560e01c806306f21e6f1461004657806363e2c3ca14610050578063f78be85a1461006c575b600080fd5b61004e61008a565b005b61006a6004803603810190610065919061016f565b610095565b005b61007461012b565b60405161008191906101d1565b60405180910390f35b612710600081905550565b60008183856000546100a7919061021b565b6100b1919061021b565b6100bb919061021b565b10156100fc576040517f08c379a00000000000000000000000000000000000000000000000000000000081526004016100f3906102ac565b60405180910390fd5b80828460005461010c919061021b565b610116919061021b565b610120919061021b565b600081905550505050565b60008054905090565b600080fd5b6000819050919050565b61014c81610139565b811461015757600080fd5b50565b60008135905061016981610143565b92915050565b60008060006060848603121561018857610187610134565b5b60006101968682870161015a565b93505060206101a78682870161015a565b92505060406101b88682870161015a565b9150509250925092565b6101cb81610139565b82525050565b60006020820190506101e660008301846101c2565b92915050565b7f4e487b7100000000000000000000000000000000000000000000000000000000600052601160045260246000fd5b600061022682610139565b915061023183610139565b9250828203905081811115610249576102486101ec565b5b92915050565b600082825260208201905092915050565b7f43616e6e6f742070726f636565737320746869732074786e2e2e000000000000600082015250565b6000610296601a8361024f565b91506102a182610260565b602082019050919050565b600060208201905081810360008301526102c581610289565b905091905056fea2646970667358221220fbe378cdec7226795a4e8beeb4f69f36b03cc6319ae37d66e7957f16a632f4cd64736f6c63430008110033",
  "immutableReferences": {},
  "source": "// SPDX-License-Identifier: MIT\r\npragma solidity >= 0.5.0 <0.9.0;\r\n\r\ncontract CreditLimit {\r\n    //2019130019 - Adwait Hegde\r\n    uint creditLimit;\r\n    \r\n\r\n    constructor() {\r\n        creditLimit = 10000;\r\n    }\r\n\r\n    function getCreditLimit() public view returns(uint){\r\n        return creditLimit;\r\n    }\r\n\r\n    function expenses(uint travel, uint food, uint stay) public {\r\n        require( creditLimit - travel - food - stay >= 0, \"Cannot proceess this txn..\");\r\n        creditLimit = creditLimit - travel - food - stay;\r\n        //2019130019 - Adwait Hegde\r\n    }\r\n\r\n    function resetCreditLimit() public {\r\n        creditLimit = 10000;\r\n    }\r\n\r\n}",
  "sourcePath": "D:\\SPIT\\SEM_7\\BCT Lab\\truffle\\contracts\\creditLimit.sol",
  "compiler": {
    "name": "solc",
    "version": "0.8.17+commit.8df45f5f.Emscripten.clang"
  },
  "schemaVersion": "3.4.10",
  "updatedAt": "2022-11-01T09:48:51.812Z",
  "devdoc": {
    "kind": "dev",
    "methods": {},
    "version": 1
  },
  "userdoc": {
    "kind": "user",
    "methods": {},
    "version": 1
  }
}